:100000000C9434000C9446000C9446000C9446006A
:100010000C9446000C9446000C9446000C94460048
:100020000C9446000C9446000C9446000C94460038
:100030000C9446000C9446000C9446000C94460028
:100040000C9446000C9446000C9489020C944600D3
:100050000C9446000C9446000C9446000C94460008
:100060000C9446000C94460011241FBECFEFD8E03C
:10007000DEBFCDBF11E0A0E0B1E001C01D92AA300B
:10008000B107E1F70E9452000C94CE040C940000DA
:1000900026E63EE004C0F9013197F1F70197009799
:1000A000D1F708950E9478000E94AF0260E071EEDF
:1000B00080E090E00E946C02789484EF91E026E664
:1000C0003EE0F9013197F1F70197D9F70E94B802A4
:1000D0008130E1F7809101016091020140910301BB
:1000E0000E9454020E94C002F1CF229A2A9A0895D7
:1000F000229A2A9A81E08093060110920401249AA0
:100100002C980895AF92BF92CF92DF92EF92FF9218
:100110000F931F93882329F48091060180958C5FAB
:100120000BC0833010F485E007C08091060190E099
:100130000196880F991F8B5F6DE4869FB001112493
:10014000882777FD8095982F0E9495035B016C01AD
:1001500022E539E44DE950E40E9449047B018C0119
:1001600020E030E040E85FE30E94FB02882314F4C3
:1001700061E054C0C801B70120E030E04FE753E42C
:100180000E94450418160CF045C0C601B50120E0D8
:1001900030E04AE754E40E94FF025B016C0126E66E
:1001A00036E646E655E40E9449047B018C0120E0D6
:1001B00030E040E85FE30E94FB0288231CF461E02A
:1001C00070E024C0C801B70120E03FEF4FE757E4DB
:1001D0000E9445041816B4F4C601B50120E030E0D1
:1001E00040E251E40E9449040E94670380E791E0E5
:1001F00005C0FC013197F1F7615070406115710540
:10020000C1F70EC0C801B7010E946703CB01019777
:10021000F1F706C0C801B7010E9467036A95F1F7BC
:100220001F910F91FF90EF90DF90CF90BF90AF9014
:10023000089590E02FE32C9A822F8A95F1F72C985D
:10024000822F8A95F1F79F5F9630A9F786EC9EE0A2
:100250000197F1F7089590E02FE32C9A822F8A9569
:10026000F1F72C98822F8A95F1F79F5F9630A9F7C6
:1002700008952F923F924F925F926F927F928F924A
:100280009F92AF92BF92CF92DF92EF92FF920F9325
:100290001F93CF93DF934091080160910701709104
:1002A0000501362F20E0942F9295907F80E0490140
:1002B000882A992A872F90E0E4E0880F991FEA9511
:1002C000E1F7882A992A46278FE04827472750E0F8
:1002D000842A952A77245FE3652E46EC442E4EE06F
:1002E000542E30E7232E31E0332E872D0E948200DA
:1002F00090E02C9A862D8A95F1F72C98862D8A9578
:10030000F1F79F5F9630A9F7C2010197F1F7C0E0BE
:10031000D0E095C02C9A862D8A95F1F72C98862DE1
:100320008A95F1F79F5F9630A9F7C4010C2E02C0A1
:10033000880F991F0A94E2F797FD0BC00F2EF0E08B
:10034000AF2EF0E8BF2EF3E8CF2EF3E4DF2EF02D32
:100350000AC00F2EF0E0AF2EF0E0BF2EFAE0CF2E55
:10036000F4E4DF2EF02DC601B50122E539E44DE9B4
:1003700050E40E9449047B018C0120E030E040E819
:100380005FE30E94FB02882314F461E052C0C801BD
:10039000B70120E030E04FE753E40E94450418160F
:1003A0000CF043C0C601B50120E030E04AE754E458
:1003B0000E94FF025B016C0126E636E646E655E444
:1003C0000E9449047B018C0120E030E040E85FE3BB
:1003D0000E94FB0288231CF461E070E022C0C80187
:1003E000B70120E03FEF4FE757E40E94450418169D
:1003F000A4F4C601B50120E030E040E251E40E94DF
:1004000049040E94670305C0C1010197F1F76150DB
:10041000704061157105C1F70EC0C801B7010E9497
:100420006703CB010197F1F706C0C801B7010E942D
:1004300067036A95F1F72196C031D10511F090E07C
:1004400069CF90E02C9A862D8A95F1F72C98862D0D
:100450008A95F1F79F5F9630A9F7C2010197F1F7EE
:10046000739486E0781609F040CFDF91CF911F9109
:100470000F91FF90EF90DF90CF90BF90AF909F9043
:100480008F907F906F905F904F903F902F90089546
:100490008093060184608093080160930701409374
:1004A00005010E94390108952A9881508093060120
:1004B00090910401892B8093080164606093070187
:1004C000409305010E9439018091040198E0892739
:1004D000809304012A9A08959B01AC0160E070E1C9
:1004E0008EE090E00E94AC04215030403093C50073
:1004F0002093C40088E98093C10086E08093C20005
:100500000895982F8091C00085FFFCCF9093C6007E
:1005100008951F920F920FB60F9211242F933F93BD
:100520004F935F936F937F938F939F93AF93BF93FB
:10053000EF93FF938091C6000E94C302FF91EF9159
:10054000BF91AF919F918F917F916F915F914F91EB
:100550003F912F910F900FBE0F901F901895109202
:1005600009011092010110920201109203010895F5
:1005700090E080910901813009F491E0892F08957C
:10058000109209010895982F80910901882391F50F
:10059000809100018230B1F0833028F4882351F03B
:1005A000813031F50BC08430A9F0843078F085308B
:1005B000F9F416C09037C9F481E00FC09636A9F45B
:1005C00082E00BC0913089F483E007C09093010171
:1005D00084E003C09093020185E0809300010895B8
:1005E0009093030181E08093090110920001089526
:1005F000109200010895D4D008F481E008950CD041
:100600000AC102D140F0F9D030F021F45F3F19F077
:10061000EBC0511134C1EEC00FD198F39923C9F347
:100620005523B1F3951B550BBB27AA2762177307F8
:10063000840738F09F5F5F4F220F331F441FAA1FAC
:10064000A9F333D00E2E3AF0E0E830D0915050406C
:10065000E695001CCAF729D0FE2F27D0660F771F1A
:10066000881FBB1F261737074807AB07B0E809F0FC
:10067000BB0B802DBF01FF2793585F4F2AF09E3F91
:10068000510568F0B1C0FBC05F3FECF3983EDCF36E
:10069000869577956795B795F7959F5FC9F7880F0A
:1006A000911D9695879597F90895E1E0660F771F5C
:1006B000881FBB1F621773078407BA0720F0621BED
:1006C000730B840BBA0BEE1F88F7E0950895BCD02E
:1006D00088F09F5790F0B92F9927B751A0F0D1F02B
:1006E000660F771F881F991F1AF0BA95C9F712C0B5
:1006F000B13081F0C3D0B1E00895C0C0672F782F2A
:100700008827B85F39F0B93FCCF386957795679520
:10071000B395D9F73EF490958095709561957F4F8C
:100720008F4F9F4F0895E89409C097FB3EF4909532
:100730008095709561957F4F8F4F9F4F9923A9F0BA
:10074000F92F96E9BB279395F69587957795679549
:10075000B795F111F8CFFAF4BB0F11F460FF1BC08D
:100760006F5F7F4F8F4F9F4F16C0882311F096E920
:1007700011C0772321F09EE8872F762F05C06623CE
:1007800071F096E8862F70E060E02AF09A95660F87
:10079000771F881FDAF7880F9695879597F9089540
:1007A000990F0008550FAA0BE0E8FEEF1616170682
:1007B000E807F907C0F012161306E407F50798F0EA
:1007C000621B730B840B950B39F40A2661F0232B03
:1007D000242B252B21F408950A2609F4A140A6957F
:1007E0008FEF811D811D089597F99F6780E870E064
:1007F00060E008959FEF80EC089500240A94161697
:10080000170618060906089500240A9412161306FE
:10081000140605060895092E0394000C11F488238C
:1008200052F0BB0F40F4BF2B11F460FF04C06F5FA8
:100830007F4F8F4F9F4F089557FD9058440F551F7E
:1008400059F05F3F71F04795880F97FB991F61F052
:100850009F3F79F087950895121613061406551FC9
:10086000F2CF4695F1DF08C0161617061806991F35
:10087000F1CF86957105610508940895E894BB272A
:1008800066277727CB0197F908958ADF08F48FEF61
:1008900008950BD0C0CFB1DF28F0B6DF18F0952354
:1008A00009F0A2CFA7CF1124EACFC6DFA0F3959F0E
:1008B000D1F3950F50E0551F629FF001729FBB2747
:1008C000F00DB11D639FAA27F00DB11DAA1F649FF3
:1008D0006627B00DA11D661F829F2227B00DA11DA6
:1008E000621F739FB00DA11D621F839FA00D611D2C
:1008F000221F749F3327A00D611D231F849F600D4D
:10090000211D822F762F6A2F11249F5750408AF085
:10091000E1F088234AF0EE0FFF1FBB1F661F771F11
:10092000881F91505040A9F79E3F510570F05CCF51
:10093000A6CF5F3FECF3983EDCF3869577956795FD
:10094000B795F795E7959F5FC1F7FE2B880F911D2F
:100950009695879597F90895A1E21A2EAA1BBB1BBD
:10096000FD010DC0AA1FBB1FEE1FFF1FA217B3077B
:10097000E407F50720F0A21BB30BE40BF50B661F91
:10098000771F881F991F1A9469F760957095809555
:1009900090959B01AC01BD01CF010895F894FFCF64
:00000001FF
